:0400000013EF00F00A
:0E000800B8A00AEF00F0B4908FEF00F01000E7
:10001800AFA012EF00F0AF903CEF00F0100046EDFB
:1000280000F04DED00F069ED00F073ED00F01DEF0C
:1000380000F0C3761FED00F0C3761FED00F01DEF52
:1000480000F0C3860401000EFB6F010EFA6F054431
:1000580084EC00F0C06E13ED00F0072E39EF00F0CD
:10006800082E40EF00F04CEF00F0052A25EF00F0D5
:10007800050E086E000E056E0A0E076E000E056E60
:1000880025EF00F00001600EAD6F020EB16F120097
:1000980000000401D36BC387C385286BCB97CB952E
:1000A8000401CE6B006BC68701870401CF6B086B18
:1000B800C78909890401D36B286BCB85098504019D
:1000C800D06BC06B106BC86B12000201030E3E6F41
:1000D80002010C0E3F6F02012A0E406F1200D68AF1
:1000E8000301639168816C81D690AF909F80D6920E
:1000F800B490A480D694B890A880D68ED68C1200DE
:10010800F926810C420C240C180C000C180C240C39
:06011800420C810C000CFA
:020000040030CA
:10000000EC0D27C79FFFFFFFFFFFFFFFFFFFFFFF75
:10001000FFFFFFFFFFFFFFFFFFFFFFFFFFFFFFFFF0
:03002000FFFFFFE0
:00000001FF
